{
  "_format": "hh-sol-artifact-1",
  "contractName": "Auction",
  "sourceName": "contracts/AuctionLastHope.sol",
  "abi": [
    {
      "anonymous": false,
      "inputs": [
        {
          "indexed": true,
          "internalType": "address",
          "name": "highestBidder",
          "type": "address"
        },
        {
          "indexed": false,
          "internalType": "uint256",
          "name": "highestBid",
          "type": "uint256"
        }
      ],
      "name": "BidEvent",
      "type": "event"
    },
    {
      "anonymous": false,
      "inputs": [
        {
          "indexed": false,
          "internalType": "string",
          "name": "message",
          "type": "string"
        },
        {
          "indexed": false,
          "internalType": "uint256",
          "name": "time",
          "type": "uint256"
        }
      ],
      "name": "CanceledEvent",
      "type": "event"
    },
    {
      "anonymous": false,
      "inputs": [
        {
          "indexed": false,
          "internalType": "address",
          "name": "withdrawer",
          "type": "address"
        },
        {
          "indexed": false,
          "internalType": "uint256",
          "name": "amount",
          "type": "uint256"
        }
      ],
      "name": "WithdrawalEvent",
      "type": "event"
    },
    {
      "inputs": [],
      "name": "Mycar",
      "outputs": [
        {
          "internalType": "string",
          "name": "Brand",
          "type": "string"
        },
        {
          "internalType": "string",
          "name": "Rnumber",
          "type": "string"
        }
      ],
      "stateMutability": "view",
      "type": "function"
    },
    {
      "inputs": [],
      "name": "STATE",
      "outputs": [
        {
          "internalType": "enum Auction.auction_state",
          "name": "",
          "type": "uint8"
        }
      ],
      "stateMutability": "view",
      "type": "function"
    },
    {
      "inputs": [],
      "name": "auction_end",
      "outputs": [
        {
          "internalType": "uint256",
          "name": "",
          "type": "uint256"
        }
      ],
      "stateMutability": "view",
      "type": "function"
    },
    {
      "inputs": [],
      "name": "auction_start",
      "outputs": [
        {
          "internalType": "uint256",
          "name": "",
          "type": "uint256"
        }
      ],
      "stateMutability": "view",
      "type": "function"
    },
    {
      "inputs": [
        {
          "internalType": "uint256",
          "name": "_bid",
          "type": "uint256"
        }
      ],
      "name": "bid",
      "outputs": [
        {
          "internalType": "bool",
          "name": "",
          "type": "bool"
        }
      ],
      "stateMutability": "payable",
      "type": "function"
    },
    {
      "inputs": [
        {
          "internalType": "address",
          "name": "",
          "type": "address"
        }
      ],
      "name": "bids",
      "outputs": [
        {
          "internalType": "uint256",
          "name": "",
          "type": "uint256"
        }
      ],
      "stateMutability": "view",
      "type": "function"
    },
    {
      "inputs": [],
      "name": "cancel_auction",
      "outputs": [
        {
          "internalType": "bool",
          "name": "",
          "type": "bool"
        }
      ],
      "stateMutability": "nonpayable",
      "type": "function"
    },
    {
      "inputs": [],
      "name": "highestBid",
      "outputs": [
        {
          "internalType": "uint256",
          "name": "",
          "type": "uint256"
        }
      ],
      "stateMutability": "view",
      "type": "function"
    },
    {
      "inputs": [],
      "name": "highestBidder",
      "outputs": [
        {
          "internalType": "address",
          "name": "",
          "type": "address"
        }
      ],
      "stateMutability": "view",
      "type": "function"
    },
    {
      "inputs": [],
      "name": "withdraw",
      "outputs": [
        {
          "internalType": "bool",
          "name": "",
          "type": "bool"
        }
      ],
      "stateMutability": "nonpayable",
      "type": "function"
    }
  ],
  "bytecode": "0x608060405234801561001057600080fd5b5061075e806100206000396000f3fe6080604052600436106100915760003560e01c806378f453401161005957806378f453401461018557806391f90157146101b0578063c458b65a146101db578063c486456c14610206578063d57bde791461023157610091565b80630216f202146100965780633ba88ca1146100c25780633ccfd60b146100ed578063454a2ab31461011857806362ea82db14610148575b600080fd5b3480156100a257600080fd5b506100ab61025c565b6040516100b9929190610482565b60405180910390f35b3480156100ce57600080fd5b506100d761037e565b6040516100e491906104d4565b60405180910390f35b3480156100f957600080fd5b50610102610383565b60405161010f91906104d4565b60405180910390f35b610132600480360381019061012d919061052a565b610388565b60405161013f91906104d4565b60405180910390f35b34801561015457600080fd5b5061016f600480360381019061016a91906105b5565b61038f565b60405161017c91906105f1565b60405180910390f35b34801561019157600080fd5b5061019a6103a7565b6040516101a791906105f1565b60405180910390f35b3480156101bc57600080fd5b506101c56103ad565b6040516101d2919061061b565b60405180910390f35b3480156101e757600080fd5b506101f06103d3565b6040516101fd91906105f1565b60405180910390f35b34801561021257600080fd5b5061021b6103d9565b60405161022891906106ad565b60405180910390f35b34801561023d57600080fd5b506102466103ec565b60405161025391906105f1565b60405180910390f35b600580600001805461026d906106f7565b80601f0160208091040260200160405190810160405280929190818152602001828054610299906106f7565b80156102e65780601f106102bb576101008083540402835291602001916102e6565b820191906000526020600020905b8154815290600101906020018083116102c957829003601f168201915b5050505050908060010180546102fb906106f7565b80601f0160208091040260200160405190810160405280929190818152602001828054610327906106f7565b80156103745780601f1061034957610100808354040283529160200191610374565b820191906000526020600020905b81548152906001019060200180831161035757829003601f168201915b5050505050905082565b600090565b600090565b6000919050565b60086020528060005260406000206000915090505481565b60015481565b600460009054906101000a900473ffffffffffffffffffffffffffffffffffffffff1681565b60025481565b600960009054906101000a900460ff1681565b60035481565b600081519050919050565b600082825260208201905092915050565b60005b8381101561042c578082015181840152602081019050610411565b60008484015250505050565b6000601f19601f8301169050919050565b6000610454826103f2565b61045e81856103fd565b935061046e81856020860161040e565b61047781610438565b840191505092915050565b6000604082019050818103600083015261049c8185610449565b905081810360208301526104b08184610449565b90509392505050565b60008115159050919050565b6104ce816104b9565b82525050565b60006020820190506104e960008301846104c5565b92915050565b600080fd5b6000819050919050565b610507816104f4565b811461051257600080fd5b50565b600081359050610524816104fe565b92915050565b6000602082840312156105405761053f6104ef565b5b600061054e84828501610515565b91505092915050565b600073ffffffffffffffffffffffffffffffffffffffff82169050919050565b600061058282610557565b9050919050565b61059281610577565b811461059d57600080fd5b50565b6000813590506105af81610589565b92915050565b6000602082840312156105cb576105ca6104ef565b5b60006105d9848285016105a0565b91505092915050565b6105eb816104f4565b82525050565b600060208201905061060660008301846105e2565b92915050565b61061581610577565b82525050565b6000602082019050610630600083018461060c565b92915050565b7f4e487b7100000000000000000000000000000000000000000000000000000000600052602160045260246000fd5b6002811061067657610675610636565b5b50565b600081905061068782610665565b919050565b600061069782610679565b9050919050565b6106a78161068c565b82525050565b60006020820190506106c2600083018461069e565b92915050565b7f4e487b7100000000000000000000000000000000000000000000000000000000600052602260045260246000fd5b6000600282049050600182168061070f57607f821691505b602082108103610722576107216106c8565b5b5091905056fea2646970667358221220c4d4c4f09d2207b140fc6361baf9c747c4bef0cbbf33fec2857866879e3f474664736f6c63430008110033",
  "linkReferences": {},
  "deployedLinkReferences": {}
}