{
  "_format": "hh-sol-artifact-1",
  "contractName": "MyAuction",
  "sourceName": "contracts/AuctionLastHope.sol",
  "abi": [
    {
      "inputs": [
        {
          "internalType": "uint256",
          "name": "_biddingTime",
          "type": "uint256"
        },
        {
          "internalType": "address",
          "name": "_owner",
          "type": "address"
        },
        {
          "internalType": "string",
          "name": "_brand",
          "type": "string"
        },
        {
          "internalType": "string",
          "name": "_Rnumber",
          "type": "string"
        }
      ],
      "stateMutability": "nonpayable",
      "type": "constructor"
    },
    {
      "anonymous": false,
      "inputs": [
        {
          "indexed": true,
          "internalType": "address",
          "name": "highestBidder",
          "type": "address"
        },
        {
          "indexed": false,
          "internalType": "uint256",
          "name": "highestBid",
          "type": "uint256"
        }
      ],
      "name": "BidEvent",
      "type": "event"
    },
    {
      "anonymous": false,
      "inputs": [
        {
          "indexed": false,
          "internalType": "string",
          "name": "message",
          "type": "string"
        },
        {
          "indexed": false,
          "internalType": "uint256",
          "name": "time",
          "type": "uint256"
        }
      ],
      "name": "CanceledEvent",
      "type": "event"
    },
    {
      "anonymous": false,
      "inputs": [
        {
          "indexed": false,
          "internalType": "address",
          "name": "withdrawer",
          "type": "address"
        },
        {
          "indexed": false,
          "internalType": "uint256",
          "name": "amount",
          "type": "uint256"
        }
      ],
      "name": "WithdrawalEvent",
      "type": "event"
    },
    {
      "inputs": [],
      "name": "Mycar",
      "outputs": [
        {
          "internalType": "string",
          "name": "Brand",
          "type": "string"
        },
        {
          "internalType": "string",
          "name": "Rnumber",
          "type": "string"
        }
      ],
      "stateMutability": "view",
      "type": "function"
    },
    {
      "inputs": [],
      "name": "STATE",
      "outputs": [
        {
          "internalType": "enum Auction.auction_state",
          "name": "",
          "type": "uint8"
        }
      ],
      "stateMutability": "view",
      "type": "function"
    },
    {
      "inputs": [],
      "name": "auction_end",
      "outputs": [
        {
          "internalType": "uint256",
          "name": "",
          "type": "uint256"
        }
      ],
      "stateMutability": "view",
      "type": "function"
    },
    {
      "inputs": [],
      "name": "auction_start",
      "outputs": [
        {
          "internalType": "uint256",
          "name": "",
          "type": "uint256"
        }
      ],
      "stateMutability": "view",
      "type": "function"
    },
    {
      "inputs": [
        {
          "internalType": "uint256",
          "name": "_bid",
          "type": "uint256"
        }
      ],
      "name": "bid",
      "outputs": [
        {
          "internalType": "bool",
          "name": "",
          "type": "bool"
        }
      ],
      "stateMutability": "payable",
      "type": "function"
    },
    {
      "inputs": [
        {
          "internalType": "address",
          "name": "",
          "type": "address"
        }
      ],
      "name": "bids",
      "outputs": [
        {
          "internalType": "uint256",
          "name": "",
          "type": "uint256"
        }
      ],
      "stateMutability": "view",
      "type": "function"
    },
    {
      "inputs": [],
      "name": "cancel_auction",
      "outputs": [
        {
          "internalType": "bool",
          "name": "",
          "type": "bool"
        }
      ],
      "stateMutability": "nonpayable",
      "type": "function"
    },
    {
      "inputs": [],
      "name": "destruct_auction",
      "outputs": [
        {
          "internalType": "bool",
          "name": "",
          "type": "bool"
        }
      ],
      "stateMutability": "nonpayable",
      "type": "function"
    },
    {
      "inputs": [],
      "name": "get_owner",
      "outputs": [
        {
          "internalType": "address",
          "name": "",
          "type": "address"
        }
      ],
      "stateMutability": "view",
      "type": "function"
    },
    {
      "inputs": [],
      "name": "highestBid",
      "outputs": [
        {
          "internalType": "uint256",
          "name": "",
          "type": "uint256"
        }
      ],
      "stateMutability": "view",
      "type": "function"
    },
    {
      "inputs": [],
      "name": "highestBidder",
      "outputs": [
        {
          "internalType": "address",
          "name": "",
          "type": "address"
        }
      ],
      "stateMutability": "view",
      "type": "function"
    },
    {
      "inputs": [],
      "name": "withdraw",
      "outputs": [
        {
          "internalType": "bool",
          "name": "",
          "type": "bool"
        }
      ],
      "stateMutability": "nonpayable",
      "type": "function"
    }
  ],
  "bytecode": "0x60806040523480156200001157600080fd5b506040516200192938038062001929833981810160405281019062000037919062000338565b826000806101000a81548173ffffffffffffffffffffffffffffffffffffffff021916908373ffffffffffffffffffffffffffffffffffffffff16021790555042600181905550610e10846200008e919062000417565b6001546200009d919062000462565b6002819055506001600960006101000a81548160ff02191690836001811115620000cc57620000cb6200049d565b5b02179055508160056000019081620000e591906200070d565b508060056001019081620000fa91906200070d565b5050505050620007f4565b6000604051905090565b600080fd5b600080fd5b6000819050919050565b6200012e8162000119565b81146200013a57600080fd5b50565b6000815190506200014e8162000123565b92915050565b600073ffffffffffffffffffffffffffffffffffffffff82169050919050565b6000620001818262000154565b9050919050565b620001938162000174565b81146200019f57600080fd5b50565b600081519050620001b38162000188565b92915050565b600080fd5b600080fd5b6000601f19601f8301169050919050565b7f4e487b7100000000000000000000000000000000000000000000000000000000600052604160045260246000fd5b6200020e82620001c3565b810181811067ffffffffffffffff8211171562000230576200022f620001d4565b5b80604052505050565b60006200024562000105565b905062000253828262000203565b919050565b600067ffffffffffffffff821115620002765762000275620001d4565b5b6200028182620001c3565b9050602081019050919050565b60005b83811015620002ae57808201518184015260208101905062000291565b60008484015250505050565b6000620002d1620002cb8462000258565b62000239565b905082815260208101848484011115620002f057620002ef620001be565b5b620002fd8482856200028e565b509392505050565b600082601f8301126200031d576200031c620001b9565b5b81516200032f848260208601620002ba565b91505092915050565b600080600080608085870312156200035557620003546200010f565b5b600062000365878288016200013d565b94505060206200037887828801620001a2565b935050604085015167ffffffffffffffff8111156200039c576200039b62000114565b5b620003aa8782880162000305565b925050606085015167ffffffffffffffff811115620003ce57620003cd62000114565b5b620003dc8782880162000305565b91505092959194509250565b7f4e487b7100000000000000000000000000000000000000000000000000000000600052601160045260246000fd5b6000620004248262000119565b9150620004318362000119565b9250828202620004418162000119565b915082820484148315176200045b576200045a620003e8565b5b5092915050565b60006200046f8262000119565b91506200047c8362000119565b9250828201905080821115620004975762000496620003e8565b5b92915050565b7f4e487b7100000000000000000000000000000000000000000000000000000000600052602160045260246000fd5b600081519050919050565b7f4e487b7100000000000000000000000000000000000000000000000000000000600052602260045260246000fd5b600060028204905060018216806200051f57607f821691505b602082108103620005355762000534620004d7565b5b50919050565b60008190508160005260206000209050919050565b60006020601f8301049050919050565b600082821b905092915050565b6000600883026200059f7fffffffffffffffffffffffffffffffffffffffffffffffffffffffffffffffff8262000560565b620005ab868362000560565b95508019841693508086168417925050509392505050565b6000819050919050565b6000620005ee620005e8620005e28462000119565b620005c3565b62000119565b9050919050565b6000819050919050565b6200060a83620005cd565b620006226200061982620005f5565b8484546200056d565b825550505050565b600090565b620006396200062a565b62000646818484620005ff565b505050565b5b818110156200066e57620006626000826200062f565b6001810190506200064c565b5050565b601f821115620006bd5762000687816200053b565b620006928462000550565b81016020851015620006a2578190505b620006ba620006b18562000550565b8301826200064b565b50505b505050565b600082821c905092915050565b6000620006e260001984600802620006c2565b1980831691505092915050565b6000620006fd8383620006cf565b9150826002028217905092915050565b6200071882620004cc565b67ffffffffffffffff811115620007345762000733620001d4565b5b62000740825462000506565b6200074d82828562000672565b600060209050601f83116001811462000785576000841562000770578287015190505b6200077c8582620006ef565b865550620007ec565b601f19841662000795866200053b565b60005b82811015620007bf5784890151825560018201915060208501945060208101905062000798565b86831015620007df5784890151620007db601f891682620006cf565b8355505b6001600288020188555050505b505050505050565b61112580620008046000396000f3fe6080604052600436106100a75760003560e01c806378f453401161006457806378f45340146101c657806391f90157146101f1578063bbafd3d41461021c578063c458b65a14610247578063c486456c14610272578063d57bde791461029d576100a7565b80630216f202146100ac5780630ac298dc146100d85780633ba88ca1146101035780633ccfd60b1461012e578063454a2ab31461015957806362ea82db14610189575b600080fd5b3480156100b857600080fd5b506100c16102c8565b6040516100cf929190610b0d565b60405180910390f35b3480156100e457600080fd5b506100ed6103ea565b6040516100fa9190610b85565b60405180910390f35b34801561010f57600080fd5b50610118610413565b6040516101259190610bbb565b60405180910390f35b34801561013a57600080fd5b506101436104e6565b6040516101509190610bbb565b60405180910390f35b610173600480360381019061016e9190610c11565b61063d565b6040516101809190610bbb565b60405180910390f35b34801561019557600080fd5b506101b060048036038101906101ab9190610c6a565b610890565b6040516101bd9190610ca6565b60405180910390f35b3480156101d257600080fd5b506101db6108a8565b6040516101e89190610ca6565b60405180910390f35b3480156101fd57600080fd5b506102066108ae565b6040516102139190610b85565b60405180910390f35b34801561022857600080fd5b506102316108d4565b60405161023e9190610bbb565b60405180910390f35b34801561025357600080fd5b5061025c610a5e565b6040516102699190610ca6565b60405180910390f35b34801561027e57600080fd5b50610287610a64565b6040516102949190610d38565b60405180910390f35b3480156102a957600080fd5b506102b2610a77565b6040516102bf9190610ca6565b60405180910390f35b60058060000180546102d990610d82565b80601f016020809104026020016040519081016040528092919081815260200182805461030590610d82565b80156103525780601f1061032757610100808354040283529160200191610352565b820191906000526020600020905b81548152906001019060200180831161033557829003601f168201915b50505050509080600101805461036790610d82565b80601f016020809104026020016040519081016040528092919081815260200182805461039390610d82565b80156103e05780601f106103b5576101008083540402835291602001916103e0565b820191906000526020600020905b8154815290600101906020018083116103c357829003601f168201915b5050505050905082565b60008060009054906101000a900473ffffffffffffffffffffffffffffffffffffffff16905090565b60008060009054906101000a900473ffffffffffffffffffffffffffffffffffffffff1673ffffffffffffffffffffffffffffffffffffffff163373ffffffffffffffffffffffffffffffffffffffff161461046e57600080fd5b60025442111561047d57600080fd5b6000600960006101000a81548160ff021916908360018111156104a3576104a2610cc1565b5b02179055507f06b08932edfa95ecf10e18f8e389c58332551bbfe5faf843ed9afb329fd14118426040516104d79190610dff565b60405180910390a16001905090565b6000600254421161052c576040517f08c379a000000000000000000000000000000000000000000000000000000000815260040161052390610e9f565b60405180910390fd5b6000600860003373ffffffffffffffffffffffffffffffffffffffff1673ffffffffffffffffffffffffffffffffffffffff1681526020019081526020016000205490506000600860003373ffffffffffffffffffffffffffffffffffffffff1673ffffffffffffffffffffffffffffffffffffffff168152602001908152602001600020819055503373ffffffffffffffffffffffffffffffffffffffff166108fc829081150290604051600060405180830381858888f193505050501580156105fb573d6000803e3d6000fd5b507f2f174ca282119315c59efaf21147aef438581dabdeb498198ae28964373dd8bc338260405161062d929190610ebf565b60405180910390a1600191505090565b600060025442111561064e57600080fd5b60035482600860003373ffffffffffffffffffffffffffffffffffffffff1673ffffffffffffffffffffffffffffffffffffffff1681526020019081526020016000205461069c9190610f17565b116106dc576040517f08c379a00000000000000000000000000000000000000000000000000000000081526004016106d390610f97565b60405180910390fd5b33600460006101000a81548173ffffffffffffffffffffffffffffffffffffffff021916908373ffffffffffffffffffffffffffffffffffffffff160217905550816003819055506007339080600181540180825580915050600190039060005260206000200160009091909190916101000a81548173ffffffffffffffffffffffffffffffffffffffff021916908373ffffffffffffffffffffffffffffffffffffffff16021790555081600860003373ffffffffffffffffffffffffffffffffffffffff1673ffffffffffffffffffffffffffffffffffffffff168152602001908152602001600020546107d29190610f17565b600860003373ffffffffffffffffffffffffffffffffffffffff1673ffffffffffffffffffffffffffffffffffffffff16815260200190815260200160002081905550600460009054906101000a900473ffffffffffffffffffffffffffffffffffffffff1673ffffffffffffffffffffffffffffffffffffffff167f0d993d4f8a84158f5329713d6d13ef54e77b325040c887c8b3e565cfd0cd3e2160035460405161087f9190610ca6565b60405180910390a260019050919050565b60086020528060005260406000206000915090505481565b60015481565b600460009054906101000a900473ffffffffffffffffffffffffffffffffffffffff1681565b60008060009054906101000a900473ffffffffffffffffffffffffffffffffffffffff1673ffffffffffffffffffffffffffffffffffffffff163373ffffffffffffffffffffffffffffffffffffffff161461092f57600080fd5b6002544211610973576040517f08c379a000000000000000000000000000000000000000000000000000000000815260040161096a90611029565b60405180910390fd5b60005b600780549050811015610a24576000600860006007848154811061099d5761099c611049565b5b9060005260206000200160009054906101000a900473ffffffffffffffffffffffffffffffffffffffff1673ffffffffffffffffffffffffffffffffffffffff1673ffffffffffffffffffffffffffffffffffffffff1681526020019081526020016000205414610a1157610a10611078565b5b8080610a1c906110a7565b915050610976565b5060008054906101000a900473ffffffffffffffffffffffffffffffffffffffff1673ffffffffffffffffffffffffffffffffffffffff16ff5b60025481565b600960009054906101000a900460ff1681565b60035481565b600081519050919050565b600082825260208201905092915050565b60005b83811015610ab7578082015181840152602081019050610a9c565b60008484015250505050565b6000601f19601f8301169050919050565b6000610adf82610a7d565b610ae98185610a88565b9350610af9818560208601610a99565b610b0281610ac3565b840191505092915050565b60006040820190508181036000830152610b278185610ad4565b90508181036020830152610b3b8184610ad4565b90509392505050565b600073ffffffffffffffffffffffffffffffffffffffff82169050919050565b6000610b6f82610b44565b9050919050565b610b7f81610b64565b82525050565b6000602082019050610b9a6000830184610b76565b92915050565b60008115159050919050565b610bb581610ba0565b82525050565b6000602082019050610bd06000830184610bac565b92915050565b600080fd5b6000819050919050565b610bee81610bdb565b8114610bf957600080fd5b50565b600081359050610c0b81610be5565b92915050565b600060208284031215610c2757610c26610bd6565b5b6000610c3584828501610bfc565b91505092915050565b610c4781610b64565b8114610c5257600080fd5b50565b600081359050610c6481610c3e565b92915050565b600060208284031215610c8057610c7f610bd6565b5b6000610c8e84828501610c55565b91505092915050565b610ca081610bdb565b82525050565b6000602082019050610cbb6000830184610c97565b92915050565b7f4e487b7100000000000000000000000000000000000000000000000000000000600052602160045260246000fd5b60028110610d0157610d00610cc1565b5b50565b6000819050610d1282610cf0565b919050565b6000610d2282610d04565b9050919050565b610d3281610d17565b82525050565b6000602082019050610d4d6000830184610d29565b92915050565b7f4e487b7100000000000000000000000000000000000000000000000000000000600052602260045260246000fd5b60006002820490506001821680610d9a57607f821691505b602082108103610dad57610dac610d53565b5b50919050565b7f41756374696f6e2043616e63656c6c6564000000000000000000000000000000600082015250565b6000610de9601183610a88565b9150610df482610db3565b602082019050919050565b60006040820190508181036000830152610e1881610ddc565b9050610e276020830184610c97565b92915050565b7f596f752063616e27742077697468647261772c207468652061756374696f6e2060008201527f6973207374696c6c206f70656e00000000000000000000000000000000000000602082015250565b6000610e89602d83610a88565b9150610e9482610e2d565b604082019050919050565b60006020820190508181036000830152610eb881610e7c565b9050919050565b6000604082019050610ed46000830185610b76565b610ee16020830184610c97565b9392505050565b7f4e487b7100000000000000000000000000000000000000000000000000000000600052601160045260246000fd5b6000610f2282610bdb565b9150610f2d83610bdb565b9250828201905080821115610f4557610f44610ee8565b5b92915050565b7f596f752063616e2774206269642c204d616b6520612068696768657220426964600082015250565b6000610f81602083610a88565b9150610f8c82610f4b565b602082019050919050565b60006020820190508181036000830152610fb081610f74565b9050919050565b7f596f752063616e27742064657374727563742074686520636f6e74726163742c60008201527f5468652061756374696f6e206973207374696c6c206f70656e00000000000000602082015250565b6000611013603983610a88565b915061101e82610fb7565b604082019050919050565b6000602082019050818103600083015261104281611006565b9050919050565b7f4e487b7100000000000000000000000000000000000000000000000000000000600052603260045260246000fd5b7f4e487b7100000000000000000000000000000000000000000000000000000000600052600160045260246000fd5b60006110b282610bdb565b91507fffffffffffffffffffffffffffffffffffffffffffffffffffffffffffffffff82036110e4576110e3610ee8565b5b60018201905091905056fea264697066735822122067720e6fa393907ca9ab5c8385792ccf4ce0aa1871d390d2a6b615b7c35a867a64736f6c63430008110033",
  "linkReferences": {},
  "deployedLinkReferences": {}
}